:020000040800F2
:10000000005000201D1900083D1500084315000888
:10001000491500084F15000855150008000000009C
:100020000000000000000000000000005B15000858
:100030006715000800000000731500087F15000810
:100040006519000865190008651900086519000898
:100050006519000865190008651900086519000888
:100060006519000865190008651900086519000878
:100070006519000865190008651900086519000868
:100080006519000865190008651900086519000858
:100090006519000865190008651900086519000848
:1000A0006519000865190008651900086519000838
:1000B0008D150008A11500086519000865190008CC
:1000C0006519000865190008651900086519000818
:1000D0006519000865190008B515000865190008BC
:1000E000651900086519000865190008000000007E
:1000F0000000000000000000000000000000000000
:0C01000000000000000000005FF808F1A3
:10010C0010B5054C237833B9044B13B10448AFF345
:10011C0000800123237010BDFC00002000000000B3
:10012C00F44D000808B5034B1BB103490348AFF36A
:10013C00008008BD0000000000010020F44D000804
:10014C0080B483B000AF7860094A7B6852F82330E2
:10015C00012B06D1064A7B68002142F823100123AB
:10016C0000E0002318460C37BD4680BC704700BF2A
:10017C001801002080B483B000AF7860044A7B681B
:10018C00012142F8231000BF0C37BD4680BC7047DC
:10019C001801002080B582B000AF7860374A7B68C8
:1001AC0052F8232036497B6841F82320354A7B6876
:1001BC0052F8232031497B6841F82320324A7B686E
:1001CC0052F8332030497B68DB000B449B8819467E
:1001DC00104601F069FF034619462A4A7B6842F82B
:1001EC002310274A7B6852F8232024497B6851F856
:1001FC0023309A423ED1214A7B6852F82320214970
:10020C007B6851F823309A4234D1204A7B6852F8EB
:10021C0023201C497B6851F823309A4216D0194A86
:10022C007B6852F8232019497B6841F82320154A32
:10023C007B6852F82330002B1CD17868FFF79AFFAB
:10024C00134A7B68C82142F8231013E0104A7B68DC
:10025C0052F823305A1E0E497B6841F823200C4A71
:10026C007B6852F82330002B04D1084A7B680121AB
:10027C0042F8231000BF0837BD4680BD3000002077
:10028C002000002040000020000000205000002032
:10029C006000002080B500AF00F0BAFE00F000FF57
:1002AC0000BF80BD80B500AF00F0B2FE00F0D8FEFC
:1002BC0000BF80BD80B500AF00F0BEFE00F0E0FED8
:1002CC0000BF80BD80B500AF00F08EFE00F0D8FE00
:1002DC0000BF80BD80B500AF114B5B78012B1DD1E9
:1002EC00104B1B68013B0F4A13600F4B1B68013B03
:1002FC000D4A13600B4B1B68002B03DA0B4B1B686E
:10030C00084A1360084B1B68002B03DA084B1B6868
:10031C00054A13606421012000F0BCFF00BF80BDC2
:10032C0070010020500100205401002030010020F9
:10033C003401002080B500AF8C4B1B68642202FB9B
:10034C0003F38B4A13608B4B1B68642202FB03F391
:10035C00894A1360894B1B68013B042B00F2038113
:10036C0001A252F823F000BF89030008B90300086A
:10037C00350400089F0400080905000800F016FE6B
:10038C007E4B02221A607C4B1B689BB219460020E4
:10039C0000F080FF754B1A68764B1B681344784A43
:1003AC001360744B1B68774A1360DDE0FFF772FF34
:1003BC000020FFF7C5FE0346012B0DD16F4B1A220F
:1003CC001A6000F0F3FD704B02221A6000F0AEFDD3
:1003DC000A21022000F05EFF0320FFF7B1FE034666
:1003EC00002B05D0694B01221A60694B0A221A6056
:1003FC00684B1B78012B14D1604B03221A605B4BAA
:10040C001A685C4B1B6813445D4A1360574B1B689E
:10041C005C4A1360564B1B689BB21946002000F0D7
:10042C0039FFFFF757FF9FE0FFF73CFF0020FFF776
:10043C0087FE0346012B0DD1504B1B221A6000F096
:10044C00B5FD514B02221A6000F070FD0A2102200A
:10045C0000F020FF4F4B1B78012B14D1474B04228B
:10046C001A60444B1B68464A1360404B1A68414B58
:10047C001B681344434A13603F4B1B689BB21946DD
:10048C00002000F007FFFFF725FF0020FFF758FEC4
:10049C006AE0FFF70FFF0020FFF752FE0346012B27
:1004AC000DD1364B1C221A6000F080FD364B022217
:1004BC001A6000F03BFD0A21022000F0EBFE354BE8
:1004CC001B78012B14D12D4B05221A60274B1B686E
:1004DC002B4A1360254B1A68264B1B681344294A78
:1004EC001360234B1B689BB21946002000F0D2FE10
:1004FC00FFF7F0FE0020FFF723FE35E0FFF7E2FEEA
:10050C000020FFF71DFE0346012B0DD11B4B1D22B6
:10051C001A6000F04BFD1C4B02221A6000F006FD25
:10052C000A21022000F0B6FE1A4B1B78012B14D1C5
:10053C00124B02221A600D4B1A680E4B1B681344A7
:10054C000F4A13600B4B1B680E4A13600A4B1B6857
:10055C009BB21946002000F09DFEFFF7BBFE002069
:10056C00FFF7EEFD00E000BF00BF80BD780000206B
:10057C00280100207C0000202C01002070000020AD
:10058C003001002034010020540100203C010020E7
:10059C00740000207001002080B500AF4C4B1B682C
:1005AC001A3B032B00F2888001A252F823F000BF03
:1005BC004906000887060008CD0500080B06000850
:1005CC0000F03AFD00F05CFD0020FFF7B9FD03469A
:1005DC00002B08D03E4B15221A6000F0C1FD3221D1
:1005EC00032000F057FE0120FFF7AAFD0346002B65
:1005FC0064D0374B1D221A6000F0B2FD5EE000F0B3
:10060C00F3FC00F03DFD0020FFF79AFD0346002BA4
:10061C0008D02F4B15221A6000F0A2FD32210320C6
:10062C0000F038FE0120FFF78BFD0346002B47D06E
:10063C00274B1A221A6000F093FD41E000F0E8FC11
:10064C0000F02EFD0020FFF77BFD0346002B08D0A9
:10065C001F4B15221A6000F083FD3221032000F09D
:10066C0019FE0120FFF76CFD0346002B2AD0184B16
:10067C001B221A6000F074FD24E000F0C9FC00F0AD
:10068C00EFFC0020FFF75CFD0346002B08D0104B5D
:10069C0015221A6000F064FD3221032000F0FAFDEF
:1006AC000120FFF74DFD0346002B0DD0084B1C22FB
:1006BC001A6000F055FD07E000BF06E000BF04E043
:1006CC0000BF02E000BF00E000BF00BF80BD00BF64
:1006DC007000002080B500AF534BDB78012B37D175
:1006EC0000F0CCFD514B0D221A60514B04221A60C4
:1006FC00504B1B68504A1360504B1A684D4B1B688B
:10070C0013444F4A13604B4B1B689BB21A46920022
:10071C0013441A4691001A460B4613449B009BB295
:10072C001946002000F0B6FD424B1B689BB21A46DE
:10073C00920013441A4691001A460B4613449B0030
:10074C009BB21946052000F0A5FD374B0022DA704C
:10075C00364B1B680A3B032B5AD801A252F823F0E4
:10076C007D070008FD070008C7070008910700086F
:10077C0000F014FD2E4B1B68022B4BD02A4B012290
:10078C00DA7047E000F0B0FC274B5B79012B43D1CA
:10079C00264B0C221A60294B1B689BB21A469200FE
:1007AC0013441A4691001A460B4613449B009BB205
:1007BC001946052000F06EFD2EE000F081FC1A4B6E
:1007CC005B79012B2AD1194B0B221A601D4B1B682C
:1007DC009BB21A46920013441A4691001A460B46D5
:1007EC0013449B009BB21946052000F053FD15E005
:1007FC0000F08EFC0C4B5B79012B11D100F09CFCB2
:10080C000A4B4FF47A721A60074B00225A7107E0B8
:10081C0000BF06E000BF04E000BF02E000BF00E044
:10082C0000BF00BF80BD00BF70010020740000201D
:10083C00700000207C000020300100207800002097
:10084C00340100208000002080B500AF904B1B6865
:10085C00172B00F0C180172B00F31081152B02D041
:10086C00162B45D00AE18B4BDB78012B0CD13221B6
:10087C00032000F00FFD4FF48061874801F043FC2A
:10088C002021864801F03FFC0120FFF759FC03466C
:10089C00012B0DD1824B1B680133814A1360804BB5
:1008AC001B68632B02DD7E4B00221A6000F03EFBBE
:1008BC000020FFF745FC0346012B0DD100F050FC46
:1008CC00734B16221A60774B03221A6000F02EFB32
:1008DC003221032000F0DEFC0220FFF731FC03463E
:1008EC00012B40F0CD806E4B1B686F4A1360C7E044
:1008FC00684BDB78012B3AD13221032000F0CAFC83
:10090C0000F02EFC694B1B68002B18D101224FF410
:10091C008061614801F0DFFB012208215F4801F092
:10092C00DAFB012220215D4801F0D5FB01221021C8
:10093C005A4801F0D0FB5D4B01221A6017E00022EF
:10094C004FF48061544801F0C6FB00220821534843
:10095C0001F0C1FB00222021504801F0BCFB002219
:10096C0010214E4801F0B7FB504B00221A600120B9
:10097C00FFF7E6FB0346012B0DD1494B1B680133F6
:10098C00474A1360464B1B68632B02DD444B002225
:10099C001A6000F0CBFA0020FFF7D2FB0346012BC4
:1009AC000FD100F0DDFB3A4B17221A6000F0FEFA73
:1009BC003C4B04221A6000F0B9FA3221032000F0FB
:1009CC0069FC0220FFF7BCFB0346012B5AD1344BC8
:1009DC001B68374A136055E02E4BDB78012B0BD18B
:1009EC003221032000F056FC08212C4801F08BFB2F
:1009FC0010212A4801F087FB0120FFF7A1FB0346D9
:100A0C00012B0DD1264B1B680133254A1360244B57
:100A1C001B68632B02DD224B00221A6000F086FA61
:100A2C000020FFF78DFB0346012B1CD100F098FB37
:100A3C00174B01221A6000F0B9FA1A4B01221A6006
:100A4C0000F074FA1A4B1B689BB21A4692001344BE
:100A5C001A4691001A460B4613449B009BB219464A
:100A6C00002000F017FC0220FFF76AFB0346012B65
:100A7C000AD10B4B1B680F4A136005E000BF04E062
:100A8C0000BF02E000BF00E000BF00BF80BD00BFA0
:100A9C00700000207001002000080140000C014093
:100AAC00500100205401002080000020380100205B
:100ABC00780000207C00002080B582B000AF786008
:100ACC007B681B68134A93421FD1322301221249BF
:100ADC00124802F0F5FE124B1B785A1CD1B2104A88
:100AEC0011701A460C4B19780E4B99540C4B1B7801
:100AFC001D2B02D90A4B00221A700B4B01221A70C3
:100B0C0001220549054802F05EFF00BF0837BD46CB
:100B1C0080BD00BF00440040880100202802002056
:100B2C0089010020940200208A01002080B500AFCA
:100B3C0000F014FF00F044F800F06EF900F07CF8BF
:100B4C0000F0CAF800F03EF900F066F9164801F022
:100B5C0051FF01221549164802F035FF00211548B6
:100B6C0001F0F2FF0A21012000F094FB642109201E
:100B7C0000F090FBFFF7DEFBFFF766FEFFF70CFDC6
:100B8C00FFF7A8FD0C4B1B78012B04D100F062FD84
:100B9C00094B00221A70322305220849044802F03E
:100BAC008FFE00F0DBFDE5E7E0010020880100206E
:100BBC0028020020980100208A0100200C4E000819
:100BCC0080B590B000AF07F1180328220021184619
:100BDC0003F0C8FC3B1D00221A605A609A60DA6070
:100BEC001A610223BB610123BB621023FB62002349
:100BFC007B6307F11803184601F09EFA0346002B9D
:100C0C0001D000F08DF90F237B600023BB60002323
:100C1C00FB604FF4C0633B6100237B613B1D0021F3
:100C2C00184601F009FD0346002B01D000F078F9BD
:100C3C0000BF4037BD4680BD80B586B000AF07F120
:100C4C00080300221A605A609A60DA603B46002260
:100C5C001A605A601F4B4FF080421A601D4B41F6D0
:100C6C003F725A601B4B00229A601A4B0922DA60C1
:100C7C00184B00221A61174B00229A61154801F09B
:100C8C0069FE0346002B01D000F04AF94FF4805363
:100C9C00BB6007F1080319460E4802F0C1F9034680
:100CAC00002B01D000F03CF900233B6000237B605B
:100CBC003B461946074802F043FD0346002B01D082
:100CCC0000F02EF9034801F095FE00BF1837BD4621
:100CDC0080BD00BFE001002080B58EB000AF07F1F1
:100CEC00280300221A605A609A60DA6007F1200328
:100CFC0000221A605A603B1D00221A605A609A60EA
:100D0C00DA601A615A619A612C4B2D4A1A602B4B8E
:100D1C003F225A60294B00229A60284B40F2E7325E
:100D2C00DA60264B00221A61244B00229A61234878
:100D3C0001F010FE0346002B01D000F0F1F84FF447
:100D4C008053BB6207F1280319461C4802F068F96E
:100D5C000346002B01D000F0E3F8184801F09CFE8C
:100D6C000346002B01D000F0DBF800233B6200238C
:100D7C007B6207F120031946104802F0E1FC0346A0
:100D8C00002B01D000F0CCF860237B600023BB600B
:100D9C000023FB6000237B613B1D002219460748A2
:100DAC0002F07CF80346002B01D000F0B9F80348A0
:100DBC0000F03AFB00BF3837BD4680BD98010020DB
:100DCC000004004080B500AF114B124A1A60104B62
:100DDC004FF416525A600E4B00229A600C4B0022B4
:100DEC00DA600B4B00221A61094B0C225A61084B3A
:100DFC0000229A61064B0022DA61054802F010FDD0
:100E0C000346002B01D000F08BF800BF80BD00BF63
:100E1C00280200200044004080B586B000AF07F1E6
:100E2C00080300221A605A609A60DA602E4B9B69A4
:100E3C002D4A43F0040393612B4B9B6903F004038D
:100E4C007B607B68284B9B69274A43F008039361BE
:100E5C00254B9B6903F008033B603B6800224FF471
:100E6C008761224801F037F900224FF4A061204835
:100E7C0001F031F91323BB600023FB6001233B61BC
:100E8C0007F1080319461A4800F08AFF0123BB60DA
:100E9C000023FB6001233B6107F10803194613484B
:100EAC0000F07EFF4FF48763BB600123FB600023DF
:100EBC003B6102237B6107F1080319460B4800F0E4
:100ECC006FFF4FF4A063BB600123FB6000233B6109
:100EDC0002237B6107F108031946054800F060FF07
:100EEC0000BF1837BD4680BD00100240000C014009
:100EFC000008014080B582B000AF786000F00CFAB9
:100F0C000020FFF747F90120FFF744F90220FFF713
:100F1C0041F90320FFF73EF900BF0837BD4680BDFD
:100F2C0080B400AF72B600BFFEE7000080B400AF23
:100F3C001A4B1B681A4A82FB03129210DB17D31A46
:100F4C00184A1360154B1968154B83FB01239A1033
:100F5C00CB17D21A13469B0013445B00CA1A114BD1
:100F6C009A60114B1B680E4A82FB03129210DB171E
:100F7C00D31A0C4A53600C4B1968094B83FB0123A1
:100F8C009A10CB17D21A13469B0013445B00CA1A53
:100F9C00044BDA6000BFBD4680BC70475001002096
:100FAC0067666666400100205401002080B400AFE3
:100FBC000A4B00221A60094B00225A60074B002290
:100FCC009A60064B0022DA60054B00221A60054B32
:100FDC0000221A6000BFBD4680BC70474001002053
:100FEC00500100205401002080B500AF01224FF4C5
:100FFC008061054801F06FF801220821034801F0D7
:10100C006AF800BF80BD00BF00080140000C014021
:10101C0080B500AF01224FF48061054801F05BF808
:10102C0000220821034801F056F800BF80BD00BF24
:10103C0000080140000C014080B500AF00224FF4C5
:10104C008061054801F047F801220821034801F0AE
:10105C0042F800BF80BD00BF00080140000C0140F9
:10106C0080B500AF01222021044801F034F80122A0
:10107C001021024801F02FF800BF80BD000C014088
:10108C0080B500AF01222021044801F024F8002291
:10109C001021024801F01FF800BF80BD000C014078
:1010AC0080B500AF00222021044801F014F8012281
:1010BC001021024801F00FF800BF80BD000C014068
:1010CC0080B500AF01224FF48061054801F003F8B0
:1010DC0001224FF48071034800F0FDFF00BF80BD7A
:1010EC00000C01400008014080B500AF00224FF415
:1010FC008061054800F0EFFF01224FF48071034836
:10110C0000F0E9FF00BF80BD000C01400008014069
:10111C0080B500AF01224FF48061054800F0DBFF81
:10112C0000224FF48071034800F0D5FF00BF80BD52
:10113C00000C01400008014080B500AF00224FF4C4
:10114C008061054800F0C7FF00224FF4807103480E
:10115C0000F0C1FF00BF80BD000C01400008014041
:10116C0080B500AF00224FF480610A4800F0B3FF55
:10117C0000220821084800F0AEFF0022202106487A
:10118C0000F0A9FF00221021034800F0A4FF00BFCB
:10119C0080BD00BF00080140000C014080B500AFCD
:1011AC002E4B1B68022B57D12D4B1B68012B31D1B9
:1011BC002C4B1B68022B0ADD2A4B02221A60C82119
:1011CC00032000F067F8284BC8221A6019E0254B61
:1011DC001B6801339BB21A46920013441A469100C5
:1011EC001A460B4613449B009BB21946032000F091
:1011FC0051F81C4B1B680133642202FB03F31A4A9F
:10120C001360174B00221A60184B00221A60184BFF
:10121C0001229A71154B1B68632B02DD134B0022C4
:10122C001A60124B1A68134B1B685A63104B9B794C
:10123C00012B11D10D4B1B6801330C4A13600A4B67
:10124C001B680D4A82FB03125211DB17D31A9BB297
:10125C001946062000F01EF800BF80BD700000206B
:10126C003C01002054010020700200205801002095
:10127C0070010020980100201F85EB5180B400AF55
:10128C00034B1B6800225A6300BFBD4680BC7047ED
:10129C009801002080B483B000AF03460A46FB716E
:1012AC001346BB80FB790649BA8821F81320FB79D9
:1012BC00044A0021D15400BF0C37BD4680BC704796
:1012CC005C0100207001002080B483B000AF0346A5
:1012DC00FB71FB790E4A32F81330002B12D0FB79DC
:1012EC000B4A32F81320013A91B2094A22F8131032
:1012FC00FB79074A32F81330002B03D1FB79054AEE
:10130C000121D15400BF0C37BD4680BC704700BFD3
:10131C005C0100207001002080B500AF0020FFF7B9
:10132C00D3FF0120FFF7D0FF0220FFF7CDFF0320F2
:10133C00FFF7CAFF0520FFF7C7FF0620FFF7C4FF22
:10134C0000BF80BD80B485B000AF154B9B69144ABB
:10135C0043F001039361124B9B6903F00103BB60E3
:10136C00BB680F4BDB690E4A43F08053D3610C4BC7
:10137C00DB6903F080537B607B680A4B5B68FB6026
:10138C00FB6823F0E063FB60FB6843F00073FB60D9
:10139C00044AFB68536000BF1437BD4680BC7047DD
:1013AC00001002400000014080B584B000AF7860AE
:1013BC007B681B68B3F1804F14D1194BDB69184A59
:1013CC0043F00103D361164BDB6903F00103FB60AF
:1013DC00FB68002200211C2000F0F9FB1C2000F00F
:1013EC0012FC18E07B681B680E4A934213D10C4B1D
:1013FC00DB690B4A43F00203D361094BDB6903F051
:10140C000203BB60BB68002200211D2000F0DFFB43
:10141C001D2000F0F8FB00BF1037BD4680BD00BF9B
:10142C00001002400004004080B588B000AF786026
:10143C0007F1100300221A605A609A60DA607B6828
:10144C001B680F4A934217D10E4B9B690D4A43F010
:10145C00040393610B4B9B6903F00403FB60FB6873
:10146C0040233B6102237B610223FB6107F11003E4
:10147C001946054800F094FC00BF2037BD4680BDDE
:10148C0000040040001002400008014080B588B004
:10149C0000AF786007F1100300221A605A609A605E
:1014AC00DA607B681B681F4A934237D11E4BDB699D
:1014BC001D4A43F40033D3611B4BDB6903F4003347
:1014CC00FB60FB68184B9B69174A43F0040393615C
:1014DC00154B9B6903F00403BB60BB6804233B61A1
:1014EC0002237B610323FB6107F1100319460F48AC
:1014FC0000F056FC08233B6100237B610023BB6199
:10150C0007F110031946094800F04AFC002200219B
:10151C00262000F05CFB262000F075FB00BF203776
:10152C00BD4680BD00440040001002400008014050
:10153C0080B400AFFEE780B400AFFEE780B400AF2C
:10154C00FEE780B400AFFEE780B400AFFEE780B4E6
:10155C0000AF00BFBD4680BC704780B400AF00BF79
:10156C00BD4680BC704780B400AF00BFBD4680BC98
:10157C00704780B500AF00F037FA00BF80BD0000A7
:10158C0080B500AF024801F081FB00BF80BD00BFF9
:10159C00E001002080B500AF024801F077FB00BFEE
:1015AC0080BD00BF9801002080B500AF024802F05A
:1015BC002FFA00BF80BD00BF2802002080B586B086
:1015CC0000AF7860144A154BD31A7B617B693B6181
:1015DC00134B1B68002B02D1114B124A1A60104B93
:1015EC001A687B6813443A699A4207D202F090FF5A
:1015FC0003460C221A604FF0FF3309E0084B1B68BE
:10160C00FB60074B1A687B681344054A1360FB6840
:10161C0018461837BD4680BD00500020000400005D
:10162C007C0100203003002080B400AF00BFBD4619
:10163C0080BC704780B500AF1E220021034802F029
:10164C0091FF034B00221A7000BF80BD9402002052
:10165C0089010020B0B500AF204B1B68012B02D0D4
:10166C00022B0AD037E01E4B1B78212B30D1FFF711
:10167C00E1FF1A4B02221A602AE0194B1B78212B2E
:10168C0002D1FFF7D7FF25E0154B1B78232B17D181
:10169C00144B01221A60144B144A14685068916858
:1016AC00D5681C6058609960DD6014695069916957
:1016BC001C6158619961928B9A83FFF7BBFF09E01B
:1016CC000B4B1B78002B05D1044B01221A6001E057
:1016DC0000BF00E000BF00BFB0BD00BF880000200D
:1016EC00880100208C01002074020020940200204C
:1016FC008901002080B400AF0B4B1B78522B0DD10D
:10170C00094B5B78532B09D1074B9B78542B05D194
:10171C00054BDB78232B01D1012300E00023184675
:10172C00BD4680BC704700BF7402002080B400AF7F
:10173C00094B1B784F2B09D1074B5B784B2B05D1F1
:10174C00054B9B78232B01D1012300E00023184685
:10175C00BD4680BC704700BF7402002080B500AF4E
:10176C005D4B1B68012B02D0022B17D0B2E0FFF7A8
:10177C00C1FF0346002B00F0AA80584B1A68134691
:10178C009B0013445B001A46544B5B6813441A4687
:10179C00534B1A60504B02221A6098E0514B5B7A03
:1017AC00012B40F09680FFF7C1FF0346002B0BD0B6
:1017BC00FFF740FF4C4B00221A604C4B01221A6081
:1017CC00454B01221A607DE0FFF734FF1E220021F9
:1017DC00474802F0C7FE414B1A6813469B0013445E
:1017EC005B001A463D4B5B6813441A463C4B1A602F
:1017FC003A4B9A6813469B0013445B001A46374BCE
:10180C00DB6813441A463B4B1A603B4B1B68052B99
:10181C000BD0394B1B68042B07D0374B1B68032BA1
:10182C0003D0354B1B68022B10D12D4B1A68314B52
:10183C001B683249324802F09DFE03469AB24FF4BF
:10184C007A732F492F4802F03BF83BE02A4B1B6878
:10185C001D2B0BD0284B1B681C2B07D0264B1B6851
:10186C001B2B03D0244B1B681A2B10D11C4B1A6852
:10187C00204B1B682449224802F07CFE03469AB296
:10188C004FF47A731E491F4802F01AF81AE01A4BEB
:10189C001B68162B07D0184B1B68172B03D0164B45
:1018AC001B68152B0ED10E4B1B681A461749144892
:1018BC0002F060FE03469AB24FF47A731049114855
:1018CC0001F0FEFF64210920FFF7E4FC01E000BFFA
:1018DC0000E000BF00BF80BD8C0000204001002054
:1018EC0080010020700100208C0100208800002065
:1018FC00740200208401002070000020144E0008A7
:10190C00B4020020280200202C4E0008404E000893
:10191C00FFF78AFE0B480C490C4A002302E0D4580E
:10192C00C4500433C4188C42F9D3094A094C00231F
:10193C0001E013600432A242FBD302F0EFFDFFF78B
:10194C00F5F8704700000020FC000020B84E00089D
:10195C00FC0000202C030020FEE7000080B500AF47
:10196C00084B1B68074A43F010031360032000F078
:10197C0023F90F2000F008F8FFF7E4FC00231846C9
:10198C0080BD00BF0020024080B582B000AF7860FF
:10199C00124B1A68124B1B7819464FF47A73B3FB2F
:1019AC00F1F3B2FBF3F3184600F03BF90346002BBE
:1019BC0001D001230EE07B680F2B0AD80022796836
:1019CC004FF0FF3000F003F9064A7B6813600023E8
:1019DC0000E0012318460837BD4680BD8400002076
:1019EC00940000209000002080B400AF054B1B78C1
:1019FC001A46054B1B681344034A136000BFBD46CF
:101A0C0080BC7047940000201803002080B400AF05
:101A1C00024B1B681846BD4680BC7047180300205B
:101A2C0080B485B000AF78607B6803F00703FB607F
:101A3C000C4BDB68BB60BA684FF6FF031340BB600E
:101A4C00FB681A02BB68134343F0BF6343F40033D3
:101A5C00BB60044ABB68D36000BF1437BD4680BC72
:101A6C00704700BF00ED00E080B400AF044BDB68B2
:101A7C001B0A03F007031846BD4680BC704700BF25
:101A8C0000ED00E080B483B000AF0346FB7197F922
:101A9C000730002B0BDBFB7903F01F02064997F98B
:101AAC0007305B09012000FA02F241F8232000BF45
:101ABC000C37BD4680BC704700E100E080B483B0B9
:101ACC0000AF03463960FB7197F90730002B0ADB36
:101ADC003B68DAB20C4997F907301201D2B20B44C9
:101AEC0083F800230AE03B68DAB20849FB7903F07B
:101AFC000F03043B1201D2B20B441A7600BF0C3711
:101B0C00BD4680BC704700BF00E100E000ED00E086
:101B1C0080B489B000AFF860B9607A60FB6803F0FC
:101B2C000703FB61FB69C3F10703042B28BF0423E4
:101B3C00BB61FB690433062B02D9FB69033B00E054
:101B4C0000237B614FF0FF32BB6902FA03F3DA43E7
:101B5C00BB681A407B699A404FF0FF317B6901FAF0
:101B6C0003F3D9437B680B40134318462437BD4617
:101B7C0080BC704780B582B000AF78607B68013B59
:101B8C00B3F1807F01D301230FE00A4A7B68013B4C
:101B9C0053600F214FF0FF30FFF790FF054B0022F1
:101BAC009A60044B07221A60002318460837BD467A
:101BBC0080BD00BF10E000E080B582B000AF78605F
:101BCC007868FFF72DFF00BF0837BD4680BD80B594
:101BDC0086B000AF0346B9607A60FB7300237B616B
:101BEC00FFF742FF78617A68B9687869FFF790FF70
:101BFC00024697F90F3011461846FFF75FFF00BFFA
:101C0C001837BD4680BD80B582B000AF0346FB716E
:101C1C0097F907301846FFF735FF00BF0837BD4668
:101C2C0080BD80B582B000AF78607868FFF7A2FF06
:101C3C00034618460837BD4680BD80B485B000AF5A
:101C4C0078600023FB737B6893F82130DBB2022BA6
:101C5C0008D07B6804229A637B68002283F82020DA
:101C6C00012320E07B681B681A687B681B6822F0E4
:101C7C000E021A607B681B681A687B681B6822F06E
:101C8C0001021A607B681A6C7B68DB6B012101FA1C
:101C9C0002F25A607B68012283F821207B680022C3
:101CAC0083F82020FB7B18461437BD4680BC704758
:101CBC0080B584B000AF78600023FB737B6893F829
:101CCC002130DBB2022B05D07B6804229A630123FE
:101CDC00FB7351E07B681B681A687B681B6822F0F9
:101CEC000E021A607B681B681A687B681B6822F0FE
:101CFC0001021A607B681B68224A934229D07B68D8
:101D0C001B68214A934222D07B681B681F4A93426E
:101D1C001AD07B681B681E4A934212D07B681B68E2
:101D2C001C4A93420AD07B681B681B4A934202D11F
:101D3C004FF480130EE04FF080730BE04FF48033C0
:101D4C0008E04FF4805305E04FF4807302E0102359
:101D5C0000E00123114A53607B68012283F82120A3
:101D6C007B68002283F820207B685B6B002B03D000
:101D7C007B685B6B78689847FB7B18461037BD46D1
:101D8C0080BD00BF080002401C0002403000024031
:101D9C0044000240580002406C0002400000024027
:101DAC0080B48BB000AF7860396000237B62002375
:101DBC003B6269E101227B6A02FA03F3FB613B6837
:101DCC001B68FA691340BB61BA69FB699A4240F01F
:101DDC0058813B685B689A4A93425ED0984A93421A
:101DEC0075D8984A934258D0964A93426FD8964ADF
:101DFC00934252D0944A934269D8944A93424CD01D
:101E0C00924A934263D8924A934246D0904A934264
:101E1C005DD8122B2AD8122B59D801A252F823F0D4
:101E2C00A71E0008811E0008931E0008D51E00087E
:101E3C00DB1E0008DB1E0008DB1E0008DB1E000892
:101E4C00DB1E0008DB1E0008DB1E0008DB1E000882
:101E5C00DB1E0008DB1E0008DB1E0008DB1E000872
:101E6C00DB1E0008891E00089D1E0008794A93425B
:101E7C0013D02CE03B68DB683B6229E03B68DB68F5
:101E8C0004333B6224E03B68DB6808333B621FE0B1
:101E9C003B68DB680C333B621AE03B689B68002BA9
:101EAC0002D104233B6213E03B689B68012B05D1F4
:101EBC0008233B627B68FA691A6109E008233B62DC
:101ECC007B68FA695A6103E000233B6200E000BFC3
:101EDC00BB69FF2B01D87B6801E07B6804337B6115
:101EEC00BB69FF2B02D87B6A9B0002E07B6A083B34
:101EFC009B003B617B691A680F213B6901FA03F374
:101F0C00DB431A40396A3B6901FA03F31A437B69D4
:101F1C001A603B685B6803F08053002B00F0B180C3
:101F2C004D4B9B694C4A43F0010393614A4B9B69AF
:101F3C0003F00103BB60BB68484A7B6A9B08023311
:101F4C0052F82330FB607B6A03F003039B000F22E3
:101F5C0002FA03F3DB43FA681340FB607B68404AE8
:101F6C00934213D07B683F4A93420DD07B683E4A24
:101F7C00934207D07B683D4A934201D1032306E08C
:101F8C00042304E0022302E0012300E000237A6A28
:101F9C0002F0030292009340FA681343FB602F494E
:101FAC007B6A9B080233FA6841F823203B685B6824
:101FBC0003F48013002B06D02D4B9A682C49BB6977
:101FCC0013438B6006E02A4B9A68BB69DB432849B4
:101FDC0013408B603B685B6803F40013002B06D046
:101FEC00234BDA682249BB691343CB6006E0204BD4
:101FFC00DA68BB69DB431E491340CB603B685B6806
:10200C0003F40033002B06D0194B5A681849BB69EE
:10201C0013434B6006E0164B5A68BB69DB4314490B
:10202C0013404B603B685B6803F48033002B21D07A
:10203C000F4B1A680E49BB6913430B6021E000BFBC
:10204C00000032100000311000002210000021109E
:10205C00000012100000111000100240000001409E
:10206C0000080140000C0140001001400014014028
:10207C00000401400B4B1A68BB69DB430949134050
:10208C000B607B6A01337B623B681A687B6A22FABD
:10209C0003F3002B7FF48EAE00BF00BF2C37BD4680
:1020AC0080BC70470004014080B485B000AF7860FC
:1020BC000B467B807B689A687B881340002B02D090
:1020CC000123FB7301E00023FB73FB7B18461437E1
:1020DC00BD4680BC704780B483B000AF78600B46BF
:1020EC007B8013467B707B78002B03D07A887B68CF
:1020FC001A6103E07B881A047B681A6100BF0C37F5
:10210C00BD4680BC704780B485B000AF78600B468C
:10211C007B807B68DB68FB607A88FB6813401A0461
:10212C00FB68D9437B880B401A437B681A6100BF5C
:10213C001437BD4680BC704780B586B000AF786060
:10214C007B68002B01D101236CE27B681B6803F0D8
:10215C000103002B00F08780924B5B6803F00C03AB
:10216C00042B0CD08F4B5B6803F00C03082B12D1A3
:10217C008C4B5B6803F48033B3F5803F0BD1894BF8
:10218C001B6803F40033002B6CD07B685B68002B5E
:10219C0068D1012346E27B685B68B3F5803F06D1CA
:1021AC00804B1B687F4A43F4803313602EE07B68BE
:1021BC005B68002B0CD17B4B1B687A4A23F4803371
:1021CC001360784B1B68774A23F4802313601DE05F
:1021DC007B685B68B3F5A02F0CD1724B1B68714AFE
:1021EC0043F4802313606F4B1B686E4A43F48033B7
:1021FC0013600BE06B4B1B686A4A23F4803313604B
:10220C00684B1B68674A23F4802313607B685B6808
:10221C00002B13D0FFF7FAFB386108E0FFF7F6FB51
:10222C0002463B69D31A642B01D90323FAE15D4BB7
:10223C001B6803F40033002BF0D014E0FFF7E6FB2F
:10224C00386108E0FFF7E2FB02463B69D31A642BC6
:10225C0001D90323E6E1534B1B6803F40033002B35
:10226C00F0D100E000BF7B681B6803F00203002B79
:10227C0063D04C4B5B6803F00C03002B0BD0494B29
:10228C005B6803F00C03082B1CD1464B5B6803F412
:10229C008033002B16D1434B1B6803F00203002B39
:1022AC0005D07B681B69012B01D00123BAE13D4BA2
:1022BC001B6823F0F8027B685B69DB003949134328
:1022CC000B603AE07B681B69002B20D0364B012257
:1022DC001A60FFF79BFB386108E0FFF797FB02469B
:1022EC003B69D31A022B01D903239BE12D4B1B68AD
:1022FC0003F00203002BF0D02A4B1B6823F0F802EA
:10230C007B685B69DB00274913430B6015E0264BA8
:10231C0000221A60FFF77AFB386108E0FFF776FBC2
:10232C0002463B69D31A022B01D903237AE11D4BD8
:10233C001B6803F00203002BF0D17B681B6803F0D1
:10234C000803002B3AD07B689B69002B19D0174BE4
:10235C0001221A60FFF75AFB386108E0FFF756FBC1
:10236C0002463B69D31A022B01D903235AE10D4BC8
:10237C005B6A03F00203002BF0D0012000F0CCFAD2
:10238C001CE00A4B00221A60FFF740FB38610FE09B
:10239C00FFF73CFB02463B69D31A022B08D90323F7
:1023AC0040E100BF00100240000042428004424263
:1023BC009E4B5B6A03F00203002BE9D17B681B6820
:1023CC0003F00403002B00F0A6800023FB75974B51
:1023DC00DB6903F08053002B0DD1944BDB69934ADE
:1023EC0043F08053D361914BDB6903F08053BB60A6
:1023FC00BB680123FB758E4B1B6803F48073002BA9
:10240C0018D18B4B1B688A4A43F480731360FFF717
:10241C00FDFA386108E0FFF7F9FA02463B69D31A76
:10242C00642B01D90323FDE0814B1B6803F48073FB
:10243C00002BF0D07B68DB68012B06D17B4B1B6A31
:10244C007A4A43F0010313622DE07B68DB68002BB2
:10245C000CD1764B1B6A754A23F001031362734B44
:10246C001B6A724A23F0040313621CE07B68DB686E
:10247C00052B0CD16D4B1B6A6C4A43F004031362A1
:10248C006A4B1B6A694A43F0010313620BE0674B0A
:10249C001B6A664A23F001031362644B1B6A634A8E
:1024AC0023F0040313627B68DB68002B15D0FFF765
:1024BC00ADFA38610AE0FFF7A9FA02463B69D31A74
:1024CC0041F28832934201D90323ABE0574B1B6A8C
:1024DC0003F00203002BEED014E0FFF797FA3861FB
:1024EC000AE0FFF793FA02463B69D31A41F28832AD
:1024FC00934201D9032395E04C4B1B6A03F0020372
:10250C00002BEED1FB7D012B05D1484BDB69474AF3
:10251C0023F08053D3617B68DB69002B00F0818052
:10252C00424B5B6803F00C03082B61D07B68DB69C2
:10253C00022B46D13F4B00221A60FFF767FA386135
:10254C0008E0FFF763FA02463B69D31A022B01D964
:10255C00032367E0354B1B6803F00073002BF0D1AD
:10256C007B681B6AB3F5803F08D1304B5B6823F462
:10257C0000327B689B682D4913434B602B4B5B6887
:10258C0023F474127B68196A7B685B6A0B432749D6
:10259C0013434B60274B01221A60FFF737FA38615F
:1025AC0008E0FFF733FA02463B69D31A022B01D934
:1025BC00032337E01D4B1B6803F00073002BF0D096
:1025CC002FE01C4B00221A60FFF720FA386108E05C
:1025DC00FFF71CFA02463B69D31A022B01D90323DD
:1025EC0020E0124B1B6803F00073002BF0D118E0B5
:1025FC007B68DB69012B01D1012313E00B4B5B687A
:10260C00FB60FB6803F480327B681B6A9A4206D13C
:10261C00FB6803F470127B685B6A9A4201D0012359
:10262C0000E0002318461837BD4680BD001002405C
:10263C00007000406000424280B584B000AF78600A
:10264C0039607B68002B01D10123D0E06A4B1B68F9
:10265C0003F007033A689A4210D9674B1B6823F0C2
:10266C00070265493B6813430B60634B1B6803F01F
:10267C0007033A689A4201D00123B8E07B681B68D3
:10268C0003F00203002B20D07B681B6803F00403CB
:10269C00002B05D0594B5B68584A43F4E0635360F8
:1026AC007B681B6803F00803002B05D0534B5B6859
:1026BC00524A43F460535360504B5B6823F0F00272
:1026CC007B689B684D4913434B607B681B6803F028
:1026DC000103002B40D07B685B68012B07D1474B73
:1026EC001B6803F40033002B15D101237FE07B68BA
:1026FC005B68022B07D1414B1B6803F00073002B66
:10270C0009D1012373E03D4B1B6803F00203002B3E
:10271C0001D101236BE0394B5B6823F003027B682A
:10272C005B68364913434B60FFF770F9F8600AE0B9
:10273C00FFF76CF90246FB68D31A41F288329342D8
:10274C0001D9032353E02D4B5B6803F00C027B682B
:10275C005B689B009A42EBD1274B1B6803F0070385
:10276C003A689A4210D2244B1B6823F00702224984
:10277C003B6813430B60204B1B6803F007033A685C
:10278C009A4201D0012332E07B681B6803F00403FA
:10279C00002B08D0194B5B6823F4E0627B68DB6884
:1027AC00164913434B607B681B6803F00803002B2E
:1027BC0009D0124B5B6823F460527B681B69DB0009
:1027CC000E4913434B6000F021F802460B4B5B683B
:1027DC001B0903F00F030A49CB5C22FA03F3094AE5
:1027EC001360094B1B681846FFF7CEF800231846F8
:1027FC001037BD4680BD00BF0020024000100240D3
:10280C00504E0008840000209000002080B487B057
:10281C0000AF0023FB600023BB6000237B6100231F
:10282C007B6000233B611E4B5B68FB60FB6803F025
:10283C000C03042B02D0082B03D027E0194B3B616F
:10284C0027E0FB689B0C03F00F03174AD35C7B60FB
:10285C00FB6803F48033002B10D0114B5B685B0CCE
:10286C0003F00103114AD35CBB607B680D4A02FB89
:10287C0003F2BB68B2FBF3F37B6104E07B680C4AA8
:10288C0002FB03F37B617B693B6102E0054B3B611F
:10289C0000BF3B6918461C37BD4680BC704700BF63
:1028AC000010024000127A00684E0008784E0008B2
:1028BC0000093D0080B400AF024B1B681846BD46B2
:1028CC0080BC70478400002080B500AFFFF7F2FF9A
:1028DC000246054B5B681B0A03F007030349CB5CFC
:1028EC0022FA03F3184680BD00100240604E000827
:1028FC0080B500AFFFF7DEFF0246054B5B68DB0AD5
:10290C0003F007030349CB5C22FA03F3184680BD9E
:10291C0000100240604E000880B485B000AF7860B3
:10292C000A4B1B680A4AA2FB03235B0A7A6802FB68
:10293C0003F3FB6000BFFB685A1EFA60002BF9D151
:10294C0000BF00BF1437BD4680BC70478400002018
:10295C00D34D621080B582B000AF78607B68002BDD
:10296C0001D1012341E07B6893F83D30DBB2002BB1
:10297C0006D17B68002283F83C207868FEF714FDB2
:10298C007B68022283F83D207B681A687B680433DD
:10299C001946104600F030FC7B68012283F8462073
:1029AC007B68012283F83E207B68012283F83F205C
:1029BC007B68012283F840207B68012283F8412048
:1029CC007B68012283F842207B68012283F8432034
:1029DC007B68012283F844207B68012283F8452020
:1029EC007B68012283F83D20002318460837BD463A
:1029FC0080BD000080B485B000AF78607B6893F830
:102A0C003D30DBB2012B01D001233AE07B6802227E
:102A1C0083F83D207B681B68DA687B681B6842F092
:102A2C000102DA607B681B68184A93420ED07B68FF
:102A3C001B68B3F1804F09D07B681B68144A934222
:102A4C0004D07B681B68134A934211D17B681B68C6
:102A5C009B6803F00703FB60FB68062B10D07B68B8
:102A6C001B681A687B681B6842F001021A6007E059
:102A7C007B681B681A687B681B6842F001021A604D
:102A8C00002318461437BD4680BC7047002C01400B
:102A9C00000400400008004080B582B000AF7860B0
:102AAC007B68002B01D1012341E07B6893F83D301A
:102ABC00DBB2002B06D17B68002283F83C207868BF
:102ACC0000F039F87B68022283F83D207B681A6895
:102ADC007B6804331946104600F08EFB7B6801229C
:102AEC0083F846207B68012283F83E207B68012214
:102AFC0083F83F207B68012283F840207B68012209
:102B0C0083F841207B68012283F842207B680122F4
:102B1C0083F843207B68012283F844207B680122E0
:102B2C0083F845207B68012283F83D20002318465A
:102B3C000837BD4680BD80B483B000AF786000BF5D
:102B4C000C37BD4680BC704780B584B000AF786050
:102B5C0039603B68002B09D17B6893F83E30DBB2BF
:102B6C00012B14BF01230023DBB222E03B68042BB2
:102B7C0009D17B6893F83F30DBB2012B14BF0123E2
:102B8C000023DBB215E03B68082B09D17B6893F876
:102B9C004030DBB2012B14BF01230023DBB208E071
:102BAC007B6893F84130DBB2012B14BF0123002367
:102BBC00DBB2002B01D001235EE03B68002B04D17B
:102BCC007B68022283F83E2013E03B68042B04D17F
:102BDC007B68022283F83F200BE03B68082B04D172
:102BEC007B68022283F8402003E07B68022283F892
:102BFC0041207B681B6801223968184600F07CFD77
:102C0C007B681B681E4A934207D17B681B685A6C11
:102C1C007B681B6842F400425A647B681B68184A44
:102C2C0093420ED07B681B68B3F1804F09D07B6850
:102C3C001B68144A934204D07B681B68124A934267
:102C4C0011D17B681B689B6803F00703FB60FB6872
:102C5C00062B10D07B681B681A687B681B6842F0D7
:102C6C0001021A6007E07B681B681A687B681B68A6
:102C7C0042F001021A60002318461037BD4680BD91
:102C8C00002C0140000400400008004080B582B0D8
:102C9C0000AF78607B681B681B6903F00203022B92
:102CAC0022D17B681B68DB6803F00203022B1BD16B
:102CBC007B681B686FF002021A617B6801221A772D
:102CCC007B681B689B6903F00303002B03D07868B7
:102CDC0000F076FA05E0786800F069FA786800F0A0
:102CEC0078FA7B6800221A777B681B681B6903F0F3
:102CFC000403042B22D17B681B68DB6803F00403FC
:102D0C00042B1BD17B681B686FF004021A617B6873
:102D1C0002221A777B681B689B6903F44073002BB3
:102D2C0003D0786800F04CFA05E0786800F03FFAC0
:102D3C00786800F04EFA7B6800221A777B681B6873
:102D4C001B6903F00803082B22D17B681B68DB6826
:102D5C0003F00803082B1BD17B681B686FF008027B
:102D6C001A617B6804221A777B681B68DB6903F0A5
:102D7C000303002B03D0786800F022FA05E0786892
:102D8C0000F015FA786800F024FA7B6800221A77B4
:102D9C007B681B681B6903F01003102B22D17B6826
:102DAC001B68DB6803F01003102B1BD17B681B68BE
:102DBC006FF010021A617B6808221A777B681B6817
:102DCC00DB6903F44073002B03D0786800F0F8F94A
:102DDC0005E0786800F0EBF9786800F0FAF97B68A8
:102DEC0000221A777B681B681B6903F00103012B17
:102DFC000ED17B681B68DB6803F00103012B07D144
:102E0C007B681B686FF001021A617868FEF772F834
:102E1C007B681B681B6903F08003802B0ED17B68D9
:102E2C001B68DB6803F08003802B07D17B681B6871
:102E3C006FF080021A61786800F0E9FC7B681B680F
:102E4C001B6903F04003402B0ED17B681B68DB68C9
:102E5C0003F04003402B07D17B681B686FF04002E6
:102E6C001A61786800F0BEF97B681B681B6903F077
:102E7C002003202B0ED17B681B68DB6803F020033A
:102E8C00202B07D17B681B686FF020021A617868D1
:102E9C0000F0B4FC00BF0837BD4680BD80B586B0DD
:102EAC0000AFF860B9607A600023FB75FB6893F89B
:102EBC003C30012B01D10223AEE0FB68012283F8E8
:102ECC003C207B680C2B00F29F8001A252F823F06F
:102EDC00112F0008153000081530000815300008B7
:102EEC00512F000815300008153000081530000867
:102EFC00932F000815300008153000081530000815
:102F0C00D32F0008FB681B68B968184600F0D6F987
:102F1C00FB681B689A69FB681B6842F008029A619F
:102F2C00FB681B689A69FB681B6822F004029A61B3
:102F3C00FB681B689969BB681A69FB681B680A43C4
:102F4C009A6164E0FB681B68B968184600F01CFACB
:102F5C00FB681B689A69FB681B6842F400629A6103
:102F6C00FB681B689A69FB681B6822F480629A6193
:102F7C00FB681B689969BB681B691A02FB681B68B4
:102F8C000A439A6143E0FB681B68B968184600F075
:102F9C0065FAFB681B68DA69FB681B6842F008027B
:102FAC00DA61FB681B68DA69FB681B6822F00402B3
:102FBC00DA61FB681B68D969BB681A69FB681B6816
:102FCC000A43DA6123E0FB681B68B968184600F015
:102FDC00AFFAFB681B68DA69FB681B6842F4006295
:102FEC00DA61FB681B68DA69FB681B6822F4806293
:102FFC00DA61FB681B68D969BB681B691A02FB683C
:10300C001B680A43DA6102E00123FB7500BFFB6811
:10301C00002283F83C20FB7D18461837BD4680BD46
:10302C0080B584B000AF786039600023FB737B6897
:10303C0093F83C30012B01D10223B4E07B680122D0
:10304C0083F83C207B68022283F83D207B681B6858
:10305C009B68BB60BB6823F07703BB60BB6823F441
:10306C007F43BB607B681B68BA689A603B681B68CF
:10307C00B3F5005F3ED0B3F5005F00F28780B3F587
:10308C00805F00F08680B3F5805F7FD8702B1AD0FC
:10309C00702B7BD8602B50D0602B77D8502B3CD02A
:1030AC00502B73D8402B58D0402B6FD8302B64D07A
:1030BC00302B6BD8202B60D0202B67D8002B5CD00A
:1030CC00102B5AD062E07B6818683B6899683B68A3
:1030DC005A683B68DB6800F0F0FA7B681B689B68F9
:1030EC00BB60BB6843F07703BB607B681B68BA6846
:1030FC009A604FE07B6818683B6899683B685A682F
:10310C003B68DB6800F0D9FA7B681B689A687B68BF
:10311C001B6842F480429A603CE07B6818683B680C
:10312C0059683B68DB681A4600F050FA7B681B68EC
:10313C005021184600F0A7FA2CE07B6818683B6811
:10314C0059683B68DB681A4600F06EFA7B681B68AE
:10315C006021184600F097FA1CE07B6818683B6801
:10316C0059683B68DB681A4600F030FA7B681B68CC
:10317C004021184600F087FA0CE07B681A683B681F
:10318C001B681946104600F07EFA03E00123FB731E
:10319C0000E000BF7B68012283F83D207B680022A1
:1031AC0083F83C20FB7B18461037BD4680BD80B4AD
:1031BC0083B000AF786000BF0C37BD4680BC704751
:1031CC0080B483B000AF786000BF0C37BD4680BCC4
:1031DC00704780B483B000AF786000BF0C37BD4639
:1031EC0080BC704780B483B000AF786000BF0C37F0
:1031FC00BD4680BC7047000080B485B000AF7860DD
:10320C0039607B681B68FB607B68294A93420BD052
:10321C007B68B3F1804F07D07B68264A934203D07A
:10322C007B68254A934208D1FB6823F07003FB604E
:10323C003B685B68FA681343FB607B681C4A9342EB
:10324C000BD07B68B3F1804F07D07B68194A93424F
:10325C0003D07B68184A934208D1FB6823F440736F
:10326C00FB603B68DB68FA681343FB60FB6823F088
:10327C0080023B685B691343FB607B68FA681A60E9
:10328C003B689A687B68DA623B681A687B689A626A
:10329C007B68074A934203D13B681A697B681A63BF
:1032AC007B6801225A6100BF1437BD4680BC704751
:1032BC00002C0140000400400008004080B487B09E
:1032CC0000AF786039607B681B6A7B617B681B6A26
:1032DC0023F001027B681A627B685B683B617B6848
:1032EC009B69FB60FB6823F07003FB60FB6823F0B9
:1032FC000303FB603B681B68FA681343FB607B6944
:10330C0023F002037B613B689B687A6913437B6102
:10331C007B681C4A93420CD17B6923F008037B61C8
:10332C003B68DB687A6913437B617B6923F0040398
:10333C007B617B68134A934211D13B6923F4807300
:10334C003B613B6923F400733B613B685B693A6901
:10335C0013433B613B689B693A6913433B617B6850
:10336C003A695A607B68FA689A613B685A687B686C
:10337C005A637B687A691A6200BF1C37BD4680BCF1
:10338C00704700BF002C014080B487B000AF78605C
:10339C0039607B681B6A7B617B681B6A23F01002B7
:1033AC007B681A627B685B683B617B689B69FB602E
:1033BC00FB6823F4E043FB60FB6823F44073FB6081
:1033CC003B681B681B02FA681343FB607B6923F0A4
:1033DC0020037B613B689B681B017A6913437B610B
:1033EC007B681D4A93420DD17B6923F080037B617E
:1033FC003B68DB681B017A6913437B617B6923F0B3
:10340C0040037B617B68144A934213D13B6923F4DC
:10341C0080633B613B6923F400633B613B685B6900
:10342C009B003A6913433B613B689B699B003A697B
:10343C0013433B617B683A695A607B68FA689A610E
:10344C003B685A687B689A637B687A691A6200BF2A
:10345C001C37BD4680BC7047002C014080B487B03F
:10346C0000AF786039607B681B6A7B617B681B6A84
:10347C0023F480727B681A627B685B683B617B68B3
:10348C00DB69FB60FB6823F07003FB60FB6823F0D7
:10349C000303FB603B681B68FA681343FB607B69A2
:1034AC0023F400737B613B689B681B027A691343AE
:1034BC007B617B681D4A93420DD17B6923F40063C9
:1034CC007B613B68DB681B027A6913437B617B6918
:1034DC0023F480637B617B68144A934213D13B696C
:1034EC0023F480533B613B6923F400533B613B68FD
:1034FC005B691B013A6913433B613B689B691B0188
:10350C003A6913433B617B683A695A607B68FA6895
:10351C00DA613B685A687B68DA637B687A691A629D
:10352C0000BF1C37BD4680BC704700BF002C01405B
:10353C0080B487B000AF786039607B681B6A3B61F0
:10354C007B681B6A23F480527B681A627B685B6819
:10355C007B617B68DB69FB60FB6823F4E043FB6009
:10356C00FB6823F44073FB603B681B681B02FA6822
:10357C001343FB603B6923F400533B613B689B683E
:10358C001B033A6913433B617B680F4A934209D191
:10359C007B6923F480437B613B685B699B017A699F
:1035AC0013437B617B687A695A607B68FA68DA61DD
:1035BC003B685A687B681A647B683A691A6200BF78
:1035CC001C37BD4680BC7047002C014080B487B0CE
:1035DC0000AFF860B9607A60FB681B6A7B61FB68BE
:1035EC001B6A23F00102FB681A62FB689B693B6152
:1035FC003B6923F0F0033B617B681B013A69134381
:10360C003B617B6923F00A037B617A69BB681343D6
:10361C007B61FB683A699A61FB687A691A6200BF40
:10362C001C37BD4680BC704780B487B000AFF860D3
:10363C00B9607A60FB681B6A7B61FB681B6A23F0CC
:10364C001002FB681A62FB689B693B613B6923F4BF
:10365C0070433B617B681B033A6913433B617B6995
:10366C0023F0A0037B61BB681B017A6913437B6168
:10367C00FB683A699A61FB687A691A6200BF1C3769
:10368C00BD4680BC704780B485B000AF78603960AF
:10369C007B689B68FB60FB6823F07003FB603A68F7
:1036AC00FB68134343F00703FB607B68FA689A607E
:1036BC0000BF1437BD4680BC704780B487B000AFE4
:1036CC00F860B9607A603B60FB689B687B617B69E2
:1036DC0023F47F437B613B681A027B681A43BB6807
:1036EC0013437A6913437B61FB687A699A6000BF64
:1036FC001C37BD4680BC704780B487B000AFF86003
:10370C00B9607A60BB6803F01F03012202FA03F36D
:10371C007B61FB681A6A7B69DB431A40FB681A629F
:10372C00FB681A6ABB6803F01F03796801FA03F39C
:10373C001A43FB681A6200BF1C37BD4680BC704739
:10374C0080B485B000AF786039607B6893F83C300A
:10375C00012B01D1022346E07B68012283F83C2037
:10376C007B68022283F83D207B681B685B68FB60EA
:10377C007B681B689B68BB60FB6823F07003FB6075
:10378C003B681B68FA681343FB607B681B68FA682C
:10379C005A607B681B68164A93420ED07B681B6884
:1037AC00B3F1804F09D07B681B68124A934204D056
:1037BC007B681B68104A93420CD1BB6823F08003D2
:1037CC00BB603B685B68BA681343BB607B681B6873
:1037DC00BA689A607B68012283F83D207B680022DE
:1037EC0083F83C20002318461437BD4680BC704734
:1037FC00002C0140000400400008004080B483B05D
:10380C0000AF786000BF0C37BD4680BC704780B4F9
:10381C0083B000AF786000BF0C37BD4680BC7047EA
:10382C0080B582B000AF78607B68002B01D101239A
:10383C0042E07B6893F84130DBB2002B06D17B6809
:10384C00002283F840207868FDF720FE7B68242254
:10385C0083F841207B681B68DA687B681B6822F45C
:10386C000052DA60786800F0C5FD7B681B681A6945
:10387C007B681B6822F490421A617B681B685A694A
:10388C007B681B6822F02A025A617B681B68DA6825
:10389C007B681B6842F40052DA607B6800225A6431
:1038AC007B68202283F841207B68202283F8422009
:1038BC007B6800225A63002318460837BD4680BD3A
:1038CC0080B58AB002AFF860B9603B601346FB80EC
:1038DC0000237B61FB6893F84130DBB2202B6DD168
:1038EC00BB68002B02D0FB88002B01D1012366E0C2
:1038FC00FB6800225A64FB68212283F84120FEF702
:10390C0085F87861FB68FA889A84FB68FA88DA840F
:10391C00FB689B68B3F5805F08D1FB681B69002BC3
:10392C0004D10023FB61BB68BB6103E0BB68FB6196
:10393C000023BB612AE03B6800937B690022802155
:10394C00F86800F014FB0346002B01D0032336E08B
:10395C00FB69002B0BD1BB691B881A46FB681B68E3
:10396C00C2F308025A60BB690233BB6107E0FB6912
:10397C001A78FB681B685A60FB690133FB61FB68B2
:10398C00DB8C9BB2013B9AB2FB68DA84FB68DB8C64
:10399C009BB2002BCFD13B6800937B690022402166
:1039AC00F86800F0E4FA0346002B01D0032306E08C
:1039BC00FB68202283F84120002300E002231846F4
:1039CC002037BD4680BD80B584B000AFF860B960CB
:1039DC001346FB80FB6893F84230DBB2202B12D1EC
:1039EC00BB68002B02D0FB88002B01D101230BE01C
:1039FC00FB6800221A63FB881A46B968F86800F065
:103A0C0024FB034600E0022318461037BD4680BD58
:103A1C0080B5BAB000AF78607B681B681B68C7F8CC
:103A2C00E4307B681B68DB68C7F8E0307B681B6898
:103A3C005B69C7F8DC300023C7F8D8300023C7F81F
:103A4C00D430D7F8E43003F00F03C7F8D830D7F8E8
:103A5C00D830002B0FD1D7F8E43003F02003002B23
:103A6C0009D0D7F8E03003F02003002B03D078689E
:103A7C0000F001FC5BE2D7F8D830002B00F0DE80C0
:103A8C00D7F8DC3003F00103002B06D1D7F8E03077
:103A9C0003F49073002B00F0D180D7F8E43003F0DE
:103AAC000103002B0BD0D7F8E03003F48073002B0C
:103ABC0005D07B685B6C43F001027B685A64D7F8D5
:103ACC00E43003F00403002B0BD0D7F8DC3003F008
:103ADC000103002B05D07B685B6C43F002027B6812
:103AEC005A64D7F8E43003F00203002B0BD0D7F85C
:103AFC00DC3003F00103002B05D07B685B6C43F0DA
:103B0C0004027B685A64D7F8E43003F00803002BF6
:103B1C0011D0D7F8E03003F02003002B05D1D7F8F3
:103B2C00DC3003F00103002B05D07B685B6C43F0A9
:103B3C0008027B685A647B685B6C002B00F0F28196
:103B4C00D7F8E43003F02003002B08D0D7F8E0308E
:103B5C0003F02003002B02D0786800F08CFB7B680C
:103B6C001B685B6903F04003002B14BF0123002387
:103B7C00DBB2C7F8D4307B685B6C03F00803002B16
:103B8C0003D1D7F8D430002B4FD0786800F096FAD8
:103B9C007B681B685B6903F04003002B41D07B689A
:103BAC001B681433C7F89C30D7F89C3053E8003F9F
:103BBC00C7F89830D7F8983023F04003C7F8D030C6
:103BCC007B681B681433D7F8D020C7F8A820C7F837
:103BDC00A430D7F8A410D7F8A82041E80023C7F8E0
:103BEC00A030D7F8A030002BD9D17B68DB6B002B31
:103BFC0013D07B68DB6B7E4A5A637B68DB6B1846A1
:103C0C00FEF756F80346002B16D07B68DB6B5B6B1C
:103C1C007A68D26B104698470EE0786800F093F9FA
:103C2C000AE0786800F08FF906E0786800F08BF90C
:103C3C007B6800225A6475E100BF73E17B681B6BE3
:103C4C00012B40F04F81D7F8E43003F01003002B28
:103C5C0000F04881D7F8E03003F01003002B00F09F
:103C6C0041810023BB607B681B681B68BB607B6861
:103C7C001B685B68BB60BB687B681B685B6903F097
:103C8C004003002B00F0B6807B68DB6B1B685B6825
:103C9C00A7F8BE30B7F8BE30002B00F045817B682A
:103CAC009B8DB7F8BE209A4280F03E817B68B7F8B6
:103CBC00BE20DA857B68DB6B9B69202B00F088804B
:103CCC007B681B680C33C7F88830D7F8883053E80A
:103CDC00003FC7F88430D7F8843023F48073C7F8DA
:103CEC00B8307B681B680C33D7F8B820C7F8942021
:103CFC00C7F89030D7F89010D7F8942041E80023FB
:103D0C00C7F88C30D7F88C30002BD9D17B681B6866
:103D1C0014337B677B6F53E8003F3B673B6F23F0AB
:103D2C000103C7F8B4307B681B681433D7F8B42090
:103D3C00C7F88020FB67F96FD7F8802041E8002393
:103D4C00BB67BB6F002BE1D17B681B6814333B66F0
:103D5C003B6E53E8003FFB65FB6D23F04003C7F857
:103D6C00B0307B681B681433D7F8B020FA66BB669A
:103D7C00B96EFA6E41E800237B667B6E002BE3D1B3
:103D8C007B68202283F842207B6800221A637B68C0
:103D9C001B680C33FB64FB6C53E8003FBB64BB6CCF
:103DAC0023F01003C7F8AC307B681B680C33D7F8D2
:103DBC00AC20BA657B65796DBA6D41E800233B6533
:103DCC003B6D002BE3D17B68DB6B1846FDF735FFB1
:103DDC007B6802225A637B689A8D7B68DB8D9BB271
:103DEC00D31A9BB21946786800F0B6F89CE000BF75
:103DFC008D4100087B689A8D7B68DB8D9BB2D31A52
:103E0C00A7F8CE307B68DB8D9BB2002B00F08E8048
:103E1C00B7F8CE30002B00F089807B681B680C3320
:103E2C00BB63BB6B53E8003F7B637B6B23F49073EA
:103E3C00C7F8C8307B681B680C33D7F8C8207A6485
:103E4C003B64396C7A6C41E80023FB63FB6B002B01
:103E5C00E3D17B681B6814337B627B6A53E8003FB9
:103E6C003B623B6A23F00103C7F8C4307B681B68D4
:103E7C001433D7F8C4203A63FB62F96A3A6B41E811
:103E8C000023BB62BB6A002BE3D17B68202283F842
:103E9C0042207B6800221A637B681B680C333B61F1
:103EAC003B6953E8003FFB60FB6823F01003C7F845
:103EBC00C0307B681B680C33D7F8C020FA61BB613B
:103ECC00B969FA6941E800237B617B69002BE3D176
:103EDC007B6802225A63B7F8CE301946786800F036
:103EEC003BF823E0D7F8E43003F08003002B09D033
:103EFC00D7F8E03003F08003002B03D0786800F093
:103F0C0053F914E0D7F8E43003F04003002B0ED043
:103F1C00D7F8E03003F04003002B08D0786800F0AD
:103F2C0092F904E000BF02E000BF00E000BFE837F8
:103F3C00BD4680BD80B483B000AF786000BF0C3745
:103F4C00BD4680BC704780B483B000AF786000BFC2
:103F5C000C37BD4680BC704780B483B000AF78602E
:103F6C000B467B8000BF0C37BD4680BC704780B5CC
:103F7C0090B000AFF860B9603B601346FB7150E045
:103F8C00BB6CB3F1FF3F4CD0BB6C002B07D0FDF7E3
:103F9C003DFD02463B68D31ABA6C9A4241D2FB688B
:103FAC001B680C33BB62BB6A53E8003F7B627B6AC5
:103FBC0023F4D073FB63FB681B680C33FA6B7A63D6
:103FCC003B63396B7A6B41E80023FB62FB6A002B85
:103FDC00E5D1FB681B6814337B617B6953E8003FB8
:103FEC003B613B6923F00103BB63FB681B68143323
:103FFC00BA6B3A62FB61F9693A6A41E80023BB612A
:10400C00BB69002BE5D1FB68202283F84120FB68BB
:10401C00202283F84220FB68002283F840200323EF
:10402C000FE0FB681B681A68BB681340BA689A42B9
:10403C000CBF01230023DBB21A46FB799A429FD0B6
:10404C00002318464037BD4680BD80B485B000AF14
:10405C00F860B9601346FB80FB68BA689A62FB682B
:10406C00FA889A85FB68FA88DA85FB6800225A641C
:10407C00FB68222283F84220FB681B69002B07D0C7
:10408C00FB681B68DA68FB681B6842F48072DA60B4
:10409C00FB681B685A69FB681B6842F001025A6195
:1040AC00FB681B68DA68FB681B6842F02002DA6068
:1040BC00002318461437BD4680BC704780B495B0B9
:1040CC0000AF78607B681B680C337B637B6B53E8B9
:1040DC00003F3B633B6B23F49073FB647B681B6872
:1040EC000C33FA6C3A64FB63F96B3A6C41E80023CD
:1040FC00BB63BB6B002BE5D17B681B6814333B6245
:10410C003B6A53E8003FFB61FB6923F00103BB648E
:10411C007B681B681433BA6CFA62BB62B96AFA6AC0
:10412C0041E800237B627B6A002BE5D17B681B6B2B
:10413C00012B19D17B681B680C33FB60FB6853E8BF
:10414C00003FBB60BB6823F010037B647B681B687B
:10415C000C337A6CBA617B617969BA6941E80023E6
:10416C003B613B69002BE5D17B68202283F8422020
:10417C007B6800221A6300BF5437BD4680BC704771
:10418C0080B584B000AF78607B685B6AFB60FB68CD
:10419C000022DA85FB680022DA84F868FFF7D3FE88
:1041AC0000BF1037BD4680BD80B485B000AF7860CD
:1041BC007B6893F84130DBB2212B3ED17B689B6846
:1041CC00B3F5805F14D17B681B69002B10D17B6821
:1041DC001B6AFB60FB681B881A467B681B68C2F372
:1041EC0008025A607B681B6A9A1C7B681A6208E09A
:1041FC007B681B6A591C7A6811621A787B681B6889
:10420C005A607B68DB8C9BB2013B9BB27A68194687
:10421C00D184002B0FD17B681B68DA687B681B6824
:10422C0022F08002DA607B681B68DA687B681B68A6
:10423C0042F04002DA60002300E0022318461437F3
:10424C00BD4680BC704780B582B000AF78607B689B
:10425C001B68DA687B681B6822F04002DA607B68B6
:10426C00202283F841207868FFF764FE002318466B
:10427C000837BD4680BD80B58CB000AF78607B68D8
:10428C0093F84230DBB2222B40F0AE807B689B6807
:10429C00B3F5805F17D17B681B69002B13D100230A
:1042AC00FB627B689B6ABB627B681B685B689BB22A
:1042BC00C3F308039AB2BB6A1A807B689B6A9A1C88
:1042CC007B689A6226E07B689B6AFB620023BB6278
:1042DC007B689B68B3F5805F07D07B689B68002B7D
:1042EC000AD17B681B69002B06D17B681B685B6855
:1042FC00DAB2FB6A1A7008E07B681B685B68DBB299
:10430C0003F07F03DAB2FB6A1A707B689B6A5A1C53
:10431C007B689A627B68DB8D9BB2013B9BB27A68AF
:10432C001946D185002B5DD17B681B68DA687B68E8
:10433C001B6822F02002DA607B681B68DA687B68F5
:10434C001B6822F48072DA607B681B685A697B6890
:10435C001B6822F001025A617B68202283F84220FC
:10436C007B6800225A637B681B6B012B35D17B6801
:10437C0000221A637B681B680C337B617B6953E8F2
:10438C00003F3B613B6923F010037B627B681B6839
:10439C000C337A6A3A62FB61F9693A6A41E80023A4
:1043AC00BB61BB69002BE5D17B681B681B6803F004
:1043BC001003102B0AD10023FB607B681B681B6861
:1043CC00FB607B681B685B68FB60FB687B689B8D94
:1043DC0019467868FFF7C0FD02E07868FCF76CFBC3
:1043EC00002302E0002300E0022318463037BD46CC
:1043FC0080BD000080B584B000AF78607B681B681E
:10440C001B6923F440517B68DA687B681B680A439C
:10441C001A617B689A687B681B691A437B685B69C5
:10442C001343BB607B681B68DB6823F4B05323F039
:10443C000C037A681268B9680B43D3607B681B68FD
:10444C005B6923F440717B689A697B681B680A433B
:10445C005A617B681B682C4A934203D1FEF748FAD9
:10446C00F86002E0FEF730FAF860FA6813469B0039
:10447C0013449A001A447B685B689B00B2FBF3F30D
:10448C00224AA2FB03235B091901FA6813469B001D
:10449C0013449A001A447B685B689B00B2FBF3F2EE
:1044AC001A4BA3FB02035B09642000FB03F3D31A32
:1044BC001B013233154AA2FB03235B0903F0F00303
:1044CC001944FA6813469B0013449A001A447B68FB
:1044DC005B689B00B2FBF3F20C4BA3FB02035B0982
:1044EC00642000FB03F3D31A1B013233074AA2FBEF
:1044FC0003235B0903F00F027B681B680A449A6074
:10450C0000BF1037BD4680BD003801401F85EB5100
:10451C00014B1868704700BF9800002070B500264A
:10452C000C4D0D4C641BA410A64209D100F05CFC90
:10453C0000260A4D0A4C641BA410A64205D170BD7E
:10454C0055F8043B98470136EEE755F8043B98477D
:10455C000136F2E7B04E0008B04E0008B04E00082D
:10456C00B44E000803460244934200D1704703F84E
:10457C00011BF9E70EB46FF0004100B59CB01DAB08
:10458C0002900690079104910848094953F8042BAE
:10459C000591006802A9019300F068F80022029BC3
:1045AC001A701CB05DF804EB03B070479800002043
:1045BC000802FFFF2DE9F0478E6882469E420C46AA
:1045CC0090461F4638D88A8912F4906F32D02568ED
:1045DC0009690133A5EB010965694B4405EB4505F8
:1045EC0005EBD5756D109D4238BF1D46530531D571
:1045FC00294600F053FB064650B90C234FF0FF3010
:10460C00CAF80030A38943F04003A381BDE8F087CA
:10461C004A46216900F0CEFAA38923F4906343F053
:10462C008003A38126614E4426603E466561A5EB5E
:10463C000905A560BE4200D93E4632464146206877
:10464C0000F0C6FAA36822689B1B32440020A360CA
:10465C002260DBE72A4600F07BFB06460028E1D10E
:10466C005046216900F0CEFAC7E700002DE9F04F63
:10467C0098468B8907461B060D4614469DB00ED5F1
:10468C000B6963B9402100F009FB2860286120B94F
:10469C000C233B604FF0FF30D1E040236B610023D3
:1046AC00099320238DF8293030234FF00109CDF8E0
:1046BC000C80DFF8A4818DF82A3023469A4613F833
:1046CC00012B0AB1252AF9D1BAEB040B0BD05B46AE
:1046DC00224629463846FFF76DFF013000F0AA80CC
:1046EC00099A5A4409929AF80030002B00F0A280E3
:1046FC0000234FF0FF32CDE905230AF1010A0493A0
:10470C0007938DF853301A935446052214F8011B65
:10471C00514800F041FA049AD8B9D00644BF20237E
:10472C008DF85330110744BF2B238DF853309AF872
:10473C0000302A2B15D0544600204FF00A0C079A53
:10474C00214611F8013B303B092B4ED9B0B10792F1
:10475C0014E0A0EB080309FA03F31343A2460493F5
:10476C00D2E7039B191D1B680391002BBBBF5B4257
:10477C0042F0020207930793B8BF049223782E2BC2
:10478C000CD163782A2B35D1039B02341A1D1B687C
:10479C000392002BB8BF4FF0FF330593DFF8C8A08E
:1047AC0003225046217800F0F7F940B14023A0EBEA
:1047BC000A0003FA00F0049B01340343049314F839
:1047CC00011B062225488DF8281000F0E5F9002879
:1047DC0038D0234B1BBB039B073323F00703083351
:1047EC000393099B3344099367E70C4601200CFBA8
:1047FC000232A5E700234FF00A0C19460134059349
:10480C00204610F8012B303A092A03D9002BC5D0C9
:10481C000591C3E7044601230CFB0121F0E703AB30
:10482C0000932A4638460F4B04A9AFF30080421C74
:10483C000646D6D1AB895B063FF52CAF09981DB067
:10484C00BDE8F08F03AB00932A463846054B04A90C
:10485C0000F07CF8EBE700BF7A4E0008844E0008AD
:10486C0000000000C1450008804E00082DE9F0470B
:10487C00164699468A680B6907469342B8BF134699
:10488C00336091F843200C46DDF820800AB10133E7
:10489C0033602368990642BF33680233336025685E
:1048AC0015F0060506D104F1190AE36832689B1A63
:1048BC00AB4228DC94F84320131E226818BF012356
:1048CC0092062DD44946384604F14302C0470130C4
:1048DC0020D02368E56803F00603042B18BF0025DD
:1048EC0032684FF00006A36808BFAD1A226908BFF2
:1048FC0025EAE5759342C4BF9B1AED181A34B542EC
:10490C001AD1002008E00123524649463846C047D8
:10491C00013003D14FF0FF30BDE8F0870135C4E71B
:10492C003020E11881F843005A1C94F845102244B9
:10493C00023382F84310C5E7012322464946384624
:10494C00C0470130E6D00136D9E700002DE9FF471A
:10495C000C46277E9146782F80469A460C9904F196
:10496C00430207D8622F0AD8002F00F0D980582FA5
:10497C0000F0A48004F1420684F842703AE0A7F1FA
:10498C006303152BF6D801A050F823F0F149000869
:10499C00054A00088149000881490008814900083E
:1049AC0081490008054A000881490008814900082E
:1049BC008149000881490008134B0008354A00085A
:1049CC00F54A00088149000881490008354B000868
:1049DC0081490008354A00088149000881490008CE
:1049EC00FD4A00080B6804F142061A1D1B680A6098
:1049FC0084F842300123A4E0256808682E0600F1F3
:104A0C0004030AD505680B60002D03DA2D236D42D3
:104A1C0084F843300A235E4819E015F0400F05680E
:104A2C000B6018BF2DB2EFE70B682568181D0860E6
:104A3C00280601D51D6802E06906FBD51D886F2F7D
:104A4C000CBF08230A235248002184F843106668DF
:104A5C00002EA8BF2168A660A4BF21F0040121602C
:104A6C000DB9002E4DD01646B5FBF3F103FB1157D3
:104A7C00C75D06F8017D2F46BB420D46F4D9082BC5
:104A8C000BD12368DF0708D5236961689942DEBF23
:104A9C00302306F8013C06F1FF36921B22614B468F
:104AAC0021464046CDF800A003AAFFF7DFFE0130F7
:104ABC004CD14FF0FF3004B0BDE8F087344884F897
:104ACC0045700E68236856F8045B1F060E6014D5FB
:104ADC00D90744BF43F0200323601DB9236823F09A
:104AEC00200323601023AFE7236843F020032360E7
:104AFC007823284884F84530E3E75E0648BFADB21A
:104B0C00E6E71646BBE70B6826681D1D60690D605D
:104B1C0035061B6801D5186002E07106FBD51880BC
:104B2C00002316462361BAE70B681A1D0A601E683B
:104B3C0000213046626800F02FF808B1801B6060DD
:104B4C0063682361002384F84330A8E73246494662
:104B5C0040462369D0470130ABD023689B0713D460
:104B6C00E068039B9842B8BF1846A4E7012332467D
:104B7C0049464046D04701309BD00135E368039944
:104B8C005B1AAB42F2DCEBE7002504F11906F5E702
:104B9C008B4E00089C4E0008034610B5C9B2024467
:104BAC009342184601D1002003E0047801338C4273
:104BBC00F6D110BD0A44914200F1FF3300D1704789
:104BCC0010B511F8014B914203F8014FF9D110BD0A
:104BDC00884210B501EB020402D98442234607D85F
:104BEC00431EA14208D011F8012B03F8012FF8E75E
:104BFC00014602448A4200D110BD13F8014D02F85F
:104C0C00014DF7E738B50546002943D051F8043C6F
:104C1C000C1F002BB8BFE41800F0D0F81E4A136824
:104C2C00104633B9636014602846BDE8384000F084
:104C3C00CBB8A3420AD921686218934201BF1A6803
:104C4C005B685218226063600460EDE71A465B688B
:104C5C000BB1A342FAD911685018A0420BD12068AD
:104C6C000144501883421160DED118685B6801441E
:104C7C0011605360D8E702D90C232B60D4E720686D
:104C8C0021188B4201BF19685B68091821606360A9
:104C9C005460C9E738BD00BF90010020F8B5CD1CA9
:104CAC0025F0030508350C2D38BF0C25002D0646C4
:104CBC0001DBA94203D90C2333600020F8BD00F0BE
:104CCC007DF821490A6814469CB9204F3B6823B9EA
:104CDC002146304600F062F838602946304600F034
:104CEC005DF8431C23D10C233046336000F06CF884
:104CFC00E3E723685B1B17D40B2B03D923601C44FD
:104D0C00256004E06368A2420CBF0B605360304620
:104D1C0000F05AF804F10B00231D20F00700C21A12
:104D2C00CCD01B1AA350C9E722466468CCE7C41C3C
:104D3C0024F00304A042E3D0211A304600F02EF8F0
:104D4C000130DDD1CFE700BF90010020940100209D
:104D5C00F8B5074614460E4621B91146BDE8F84091
:104D6C00FFF79CBF22B9FFF74DFF25462846F8BD3B
:104D7C0000F030F8A0420FD221463846FFF78EFFE4
:104D8C0005460028F2D031462246FFF713FF314684
:104D9C003846FFF737FFE9E73546E7E738B5002334
:104DAC00054D044608462B60FCF708FC431C02D159
:104DBC002B6803B1236038BD1C030020014800F0B0
:104DCC0011B800BF24030020014800F00CB800BF4C
:104DDC002403002051F8043C181F002BBCBF0B58B7
:104DEC00C018704770477047F8B500BFF8BC08BCD6
:104DFC009E467047F8B500BFF8BC08BC9E4670478D
:104E0C00756E726179000000214155544F4D41542B
:104E1C0049433A2025642C20256423200D0A0000E8
:104E2C00214D414E55414C3A2025642C20256423BC
:104E3C00200D0A002154554E494E473A2025642333
:104E4C00200D0A0000000000000000000102030415
:104E5C000607080900000000010203040203040510
:104E6C00060708090A0B0C0D0E0F10100102232D5A
:104E7C00302B2000686C4C00656667454647003057
:104E8C0031323334353637383941424344454600A4
:104E9C0030313233343536373839616263646566A4
:044EAC000000000002
:044EB00031010008C4
:044EB4000D010008E4
:104EB8000008014002000000000801401000000046
:104EC800000C014001000000000801400100000042
:104ED80001000000000000000000000000000000C9
:104EE80001000000000000000000000000000000B9
:104EF80001000000000000000000000000000000A9
:104F08000100000000000000000000000000000098
:104F1800C8000000000000000000000000000000C1
:104F28000100000001000000020000000300000072
:104F3800050000000024F40001000000010000004A
:104F480010000000010000009C000020000000008C
:104F58000000000000000000000000000000000049
:104F68000000000000000000000000000000000039
:104F78000000000000000000000000000000000029
:104F88000000000000000000000000000000000019
:104F98000000000000000000000000000000000009
:0C4FA800000000000000000000000000FD
:040000050800191DB9
:00000001FF
